:0400000002008C323C
:01000B0032C2
:0100130032BA
:01001B0032B2
:0100230032AA
:01002B0032A2
:01003300329A
:01003B003292
:0300430002012097
:200048000000E2FBEAF2802C0000E0FBEAF08024E6B50202EBF62200E2B50202EBF222009E
:20006800E0B50202EBF02230F6E0A88220F5D3EAC6F582228B822230F6E6A88220F5D980AE
:01008800CFA8
:0300E5000200898D
:030089000200FB77
:2000E800759A50438E0475D7FA75D6FF438E1043AF012275B2FF75B10074FE55924402F55E
:200108009274FD55914401F5914392045391FB1200E8D2AFC29280FEC0E0C007C0D075D0E2
:2001280000E59A30E00B539AFE859B088508B0D292D0D0D007D0E032AE82AF83C006C00721
:2001480090000F12016E85820B85830C15811581750A5AD50AFD150B74FFB50B02150CE515
:060168000B450C70EE22B5
:0600BB00E478FFF6D8FD19
:200099007900E94400601B7A00900194780175A000E493F2A308B8000205A0D9F4DAF27578
:0200B900A0FFA6
:20016E0074FE2581F8E68582F0A4C0E08582F018E6A4F582D0E025F0C58386F0A42583F56C
:02018E008322CA
:2000C1007800E84400600A790175A000E4F309D8FC7800E84400600C7900900001E4F0A33D
:0400E100D8FCD9FA74
:0D008C0075810C120190E58260030200896D
:040190007582002252
:00000001FF
