:0400000002010C32BB
:03000B000201CE21
:0100130032BA
:01001B0032B2
:0100230032AA
:01002B0032A2
:01003300329A
:01003B003292
:01004300328A
:01004B003282
:01005300327A
:01005B003272
:01006300326A
:01006B003262
:01007300325A
:01007B003252
:01008300324A
:01008B003242
:01009300323A
:01009B003232
:0100A300322A
:0100AB003222
:0100B300321A
:0100BB003212
:0300C3000201EF48
:2000C8000000E2FBEAF2802C0000E0FBEAF08024E6B50202EBF62200E2B50202EBF222001E
:2000E800E0B50202EBF02230F6E0A88220F5D3EAC6F582228B822230F6E6A88220F5D9802E
:01010800CF27
:0D016500D201750800750900C200020109F1
:0301090002018B65
:2001720043B80243B702438E805389F0758ACD758CD4C28DD28CD2A922759230759130758A
:20019200B2FF75B10043CA1053C9EF12017243B54053B6BF75903375BA8090FE807481F0EF
:2001B20090FE84E4F0AF9074035F443025E090FE85F090FE837478F0D2AF80FEC0E0C0D09A
:2001D200B2003000057509FF8003750900E5086209A20092CC8509B0D0D0D0E032C0E0C030
:2001F20082C083C007C0D075D00090FE84E030E60A90FE84E053E0BFF0805190FE84E030B3
:20021200E52490FE84E053E0DFF0100102800F90FE87E030E03690FE86E508F0802E90FEC5
:2002320087E0F508802690FE84E030E41090FE84E053E0EFF090FE86E508F0800F90FE84F6
:17025200E030E30890FE84E053E0F7F0D0D0D007D083D082D0E03290
:06013B00E478FFF6D8FD98
:200119007900E94400601B7A0090026D780175A000E493F2A308B8000205A0D9F4DAF2751D
:02013900A0FF25
:200141007800E84400600A790175A000E4F309D8FC7800E84400600C7900900001E4F0A3BC
:04016100D8FCD9FAF3
:0D010C00758120120269E58260030201097D
:040269007582002278
:00000001FF
