:040000000200543274
:03000B00020407E5
:200010000000E2FBEAF2802C0000E0FBEAF08024E6B50202EBF62200E2B50202EBF22200D6
:20003000E0B50202EBF02230F6E0A88220F5D3EAC6F582228B822230F6E6A88220F5D980E6
:01005000CFE0
:0300AD00020051FD
:030051000203A700
:2000B00043B20853B1F753CADF43C92053B2FC53B1FC2275D80075D90875DB4275F300222E
:2000D000AE82AF8353F3CD8E04EFA2E7CC33CC33CC5401530402EC42F38EFB2243D84022D0
:2000F00053D8BF2275BC8475DE202243BC40E5BC30E5FB53BCDFAFBD7E00ACBE7D00EC42BD
:2001100006ED42078E828F8322438E805389F0758A0C758CFCC28DD2A9D2AF22438E405359
:20013000890F758BEA758DFFC2ABD28E2275984053873F538EDE22858299E59830E1FB537A
:2001500098FD22AE82AF83C007C0067410C0E07427C0E08E828F83120439AC8215811581BF
:2001700074302CF582120147D006D007C007C0067410C0E07427C0E08E828F8312054F1598
:2001900081158174E8C0E07403C0E0120439AC821581158174302CF582120147D006D0072E
:2001B000C007C00674E8C0E07403C0E08E828F8312054F158115817464C0E0E4C0E01204C9
:2001D00039AC821581158174302CF582120147D006D007C007C0067464C0E0E4C0E08E8295
:2001F0008F8312054FAC821581158175F00AEC842430F582120147D006D007740AC0E0E46A
:20021000C0E08E828F8312054FAE821581158174302EF58212014775820D12014775820A48
:20023000020147AE82AF837D008D048F058E077E0074F42EFE74013FFFE43DFDE43CFC7458
:20025000E8C0E07403C0E0E4C0E0C0E08E828F838DF0EC1204E2AC82AD83E58124FCF581EE
:200270008C828D830200D0C28C758A0C758CFCE4F508F509F50AD28C22C00EE581F50E246F
:2002900008F5817F017D527E03C007C006C005120277D005D006D0077C00E50E2405F8E42D
:2002B000F608F6E50E2407F8E4F608F6C005C006C007C006C005C0041200FBAA82AB83D074
:2002D00004D005D006D0078A058B06C3ED94BCEE9402D006D00540048A058B06EF7019E578
:2002F0000E2405F8E508C396FAE5090896FBC374649AE49B50B67F018D028E03C3EA94203D
:20031000EB9403500FBF010CE50E2405F8A60808A6097F02C374529A74039B508FBF028CC5
:20033000EC700AE50E2407F8A60808A609BC025BE50E2407F8E508C396FAE5090896C313FB
:20035000CA13CAFBA80E08A60208A603087600087600A80E08E6C0E008E6C0E008E6C0E078
:2003700008E6C0E09027C075F009E412048CA80E08A68208A68308A6F008F6E58124FCF546
:2003900081A80E08868208868380060C7F000202BC850E81D00E221200B01200C31200F473
:2003B00012013D12012C1201199000001202331200EC1202779001901202339003E812031A
:2003D000D912028912015380ECAE82AF83C006C00790000F12046A85820C85830D158115E4
:2003F00081750B5AD50BFD150C74FFB50C02150DE50C450D70EE22C0E0C007C006C0D07547
:20041000D000AE08AF09BEFF0ABFFF07C28C750A01800DAE08AF0974012EF508E43FF50978
:09043000D0D0D006D007D0E03294
:20043900E58124FEF8E6F918E6F87A10E4FBFCE58225E0F582E58333F583EB33FBEC33FCBF
:11045900EB98F5F0EC994006FCABF0438201DADF2227
:06008300E478FFF6D8FD51
:200061007900E94400601B7A00900598780175A000E493F2A308B8000205A0D9F4DAF275A8
:02008100A0FFDE
:20046A0074FE2581F8E68582F0A4C0E08582F018E6A4F582D0E025F0C58386F0A42583F56D
:02048A008322CB
:200089007800E84400600A790175A000E4F309D8FC7800E84400600C7900900001E4F0A375
:0400A900D8FCD9FAAC
:20048C00FBC2D530E715D2D5E4C39582F582E49583F583E495F0F5F0E49BFBE58124FEF8FA
:2004AC00E630E715B2D5181818E4C396F6E40896F6E40896F6E40896F61818181204E8303E
:1604CC00D513FBE4C39582F582E49583F583E495F0F5F0E49B229F
:2004E200FBE58124FBF8E6F9087A20E4FCFDFEFFE5822582F582E58333F583E5F033F5F0A2
:20050200EB33FB4017DAE98042E5822582F582E58333F583E5F033F5F0EB33FBEC33FCED3E
:2005220033FDEE33FEEF33FFEC99ED96EE0896EF089618184013EC99FCED96FDEE0896FE1A
:0D054200EF0896FF1818438201DABEEB2285
:0D00540075810E120594E5826003020051D3
:20054F00E58124FEF88601188600E84960367A01E825E0F8E933400EF9E58298E58399401D
:20056F00030A80ECC3E913F9E813F8C3E58298F5F0E583994005F58385F082C3E913F9E84C
:05058F0013F8DAE72279
:04059400758200224A
:00000001FF
