:020000020000FC
*F
:100000000AC01DC01BC01AC030C018C017C016C01F
:1000100015C014C013C011271FBFCFE5D0E0DEBF4D
:10002000CDBF20E0A0E4B0E0E6EEF0E402C0319104
:100030003D93A234B207D9F73CD053C0E1CF1F9310
:100040000F930FB70F9310E04F935F934EEF5FEF57
:1000500059BD48BD13BB4AB7417F4ABF5F914F911D
:100060000F910FBF0F911F9118951F930F930FB70B
:100070000F9310E04F935F9343E45CEF59BD48BD8D
:10008000029B08C012B94AB7417F44604ABF41E0B1
:1000900043BB08C050A143E0452740A942B94AB735
:1000A000417F4ABF5F914F910F910FBF0F911F91F9
:1000B000189543E041B912B944E043B942E045BF65
:1000C00015BB40E84FBB41E04ABF1EBD4DBD1CBD46
:1000D0006EEF7FEF79BD68BD4BBD1FBD78948895ED
:0600E000FECFF894FFCFF3
:0200E600010017
:00000001FF
