:04000000020138328F
:01000B0032C2
:0100130032BA
:01001B0032B2
:0100230032AA
:01002B0032A2
:01003300329A
:01003B003292
:01004300328A
:01004B003282
:01005300327A
:01005B003272
:01006300326A
:01006B003262
:01007300325A
:01007B003252
:01008300324A
:01008B003242
:01009300323A
:01009B003232
:0100A300322A
:0100AB003222
:0100B300321A
:0100BB003212
:0300C30002040133
:2000C8000000E2FBEAF2802C0000E0FBEAF08024E6B50202EBF62200E2B50202EBF222001E
:2000E800E0B50202EBF02230F6E0A88220F5D3EAC6F582228B822230F6E6A88220F5D9802E
:01010800CF27
:0301B90002010937
:030109000201CF21
:2001BC0075081D75090E750A36D50AFDD509FAD508F7227582FF12021DE4C0E075823312B7
:2001DC000291158175820F1202ED75820112032E1201BCE4C0E075823312029115817582E9
:0F01FC00001202ED75820112032E1201BC80CA9F
:20019100D200C20175221A752301752400756500756600756700756800756900E4F56AF552
:0801B1006BF56CF56D756E0233
:20020B00C00B85810B858222E50B24FDF88623D00B22AF82439230439130D294D29575BAE9
:20022B0080EF30E71690FE8074C04522F090FE82E4F090FE81F090FE88F02290FE80748170
:20024B00F090FE84E4F0EF2FFF90FE8574014FF0D2AF90FE837478F022E52375F0DAA4F569
:20026B006F85F07090FE82E020E612156F74FFB56F021570E56F457070EA75240290FE8267
:20028B00E053E0BFF022C00B85810BAF82E50B24FDF8E6FEF56E700BF524F565EF2F4EF5C3
:2002AB00258017BE0114756500EF2F4EF525756600756700756800756900D00B22AF82ADF7
:2002CB00677E008F037C00EB2DFDEC3EFEC374209D74808EF063F08095F04005EF2567F570
:2002EB006722AF82AD657E000DBD00010EC3ED9420EE64809480500AE56504F5652425F843
:20030B00A60722E5686014E5692445F987827700E56814F568E56904F569227582002285E4
:20032B00688222AF8290FE82E4F090FE8104F0C007120264D007E56E7030FEC3E5659E409C
:20034B0029EE2425F990FE86E7F090FE81740AF0C007C006120264D006D00790FE82E030FF
:20036B00E10575240180030E80D17401B56E6690FE86E525F090FE81740AF0C00712026448
:20038B00D0077E00C3EE95675040AC677D008E027B00ECC39AFCED9BFDBC010BBD0008903E
:2003AB00FE81740CF0800690FE81740BF0C007C006120264D006D007E5662445F990FE87CB
:2003CB00E0F7E56604F5660E80BAE566F5686005E56614F566EF600990FE817406F012029D
:2003EB0064756E028524822285826A85836B2285826C85836D22C021C0E0C0F0C082C08396
:20040B00C007C006C005C004C003C002C001C000C0D075D00090FE84E0FF30E63990FE848E
:20042B00E053E0BFF030011BE566F5686006E566FF14F566E56A456B6009856A82856B8390
:20044B00120136D201D20075650075660075680075690002052490FE84E0FF30E55290FE22
:20046B0084E053E0DFF0100002802D90FE87E05401F56E7401B56E028003020524E56C45C1
:20048B006D6009856C82856D8312013675650190FE86E526F002052474E02566407BE56650
:2004AB002445F990FE87E0F7E566FF04F566806990FE84E030E43590FE84E053E0EFF0AE64
:2004CB00657F000EBE00010FC3EE9420EF648094805012E565FF04F5652425F990FE86E7BF
:2004EB00F07700803490FE86E4F0802D90FE84E0FF30E32590FE84E053E0F7F0C201E566FE
:20050B00F5686006E566FF14F566E56A456B6009856A82856B83120136D0D0D000D001D0AE
:18052B0002D003D004D005D006D007D083D082D0F0D0E0D02102010C78
:06016700E478FFF6D8FD6C
:200145007900E94400601B7A00900547780175A000E493F2A308B8000205A0D9F4DAF27514
:02016500A0FFF9
:20010C00C000A88118C0D0B6001B18B6C8004015B6EF005010C0E0E65407B406005004E6AC
:0A012C0054F8F6D0E0D0D0D0003235
:20016D007800E84400600A790175A000E4F309D8FC7800E84400600C7900900001E4F0A390
:04018D00D8FCD9FAC7
:02013600E47370
:0D013800758170120543E582600302010924
:04054300758200229B
:00000001FF
