:0400000002010C32BB
:01000B0032C2
:0100130032BA
:01001B0032B2
:0100230032AA
:01002B0032A2
:01003300329A
:01003B003292
:01004300328A
:01004B003282
:01005300327A
:01005B003272
:01006300326A
:01006B003262
:01007300325A
:01007B003252
:01008300324A
:01008B003242
:01009300323A
:01009B003232
:0100A300322A
:0100AB003222
:0100B300321A
:0100BB003212
:0300C3000201A097
:2000C8000000E2FBEAF2802C0000E0FBEAF08024E6B50202EBF62200E2B50202EBF222001E
:2000E800E0B50202EBF02230F6E0A88220F5D3EAC6F582228B822230F6E6A88220F5D9802E
:01010800CF27
:09016500750B007509DA020109AD
:0301090002016E82
:20016E007592307591304392045391FB43B54053B6BF75903375BA8090FE807481F090FEE4
:20018E0084E4F090FE8504F090FE837478F0D2AF80FEC0E0C082C083C007C0D075D00090B5
:2001AE00FE84E030E60E750B0190FE84E053E0BFF002025390FE84E030E56A7401B50B2E2B
:2001CE0090FE87E030E0227401B5080890FE86E509F080477402B5080890FE86E50AF08049
:2001EE003A90FE8674CAF08032750B02802D7402B50B0B90FE87E0F508750B03801D7403CA
:20020E00B50B187401B5080AB29290FE87E0F509800690FE87E0F50A750B0490FE84E05342
:20022E00E0DFF0802090FE84E030E40A90FE84E053E0EFF0800F90FE84E030E30890FE849F
:10024E00E053E0F7F0D0D0D007D083D082D0E032A8
:06013B00E478FFF6D8FD98
:200119007900E94400601B7A00900262780175A000E493F2A308B8000205A0D9F4DAF27528
:02013900A0FF25
:200141007800E84400600A790175A000E4F309D8FC7800E84400600C7900900001E4F0A3BC
:04016100D8FCD9FAF3
:0D010C0075810B12025EE58260030201099D
:04025E007582002283
:00000001FF
