:040000000200543274
:03000B000209CB1C
:200010000000E2FBEAF2802C0000E0FBEAF08024E6B50202EBF62200E2B50202EBF22200D6
:20003000E0B50202EBF02230F6E0A88220F5D3EAC6F582228B822230F6E6A88220F5D980E6
:01005000CFE0
:0600AD00750B000200517A
:030051000208CAD8
:2000B30075BBFF7594FF7593007592FF75910043B4E053B31F43B2FB43B1FB7596FF7595F3
:2000D300FF43B41043B310758000759000C2B2C2C5C2C6C2C775B00075A000C2C422D2AF98
:2000F300438E805389F0758A50758CFBC28DD28CD2A922AE82AF838E80EF540124FF92C60C
:200113008F0674FE5EF59022AE82AF838E0574035DFC5305F8ED2D4204ECF4F5B08E04EF45
:20013300A2E7CC33CC33CC5401ECF4F5A074EF55B4FDEF235401C454F04205EDF4F5C022B8
:20015300C00C85810CC082C083C0F07C00EC75F002A4FAABF02401FEEB3400FD8E828D8312
:2001730074FFF0A3F0900008C006C005C004C003C002120994D002D003D004D005D006A88F
:200193000C08EA26FAEB0836FB0886078A828B838FF0120A74FAA3120A74FB8E828D83EA1A
:2001B300F0EBA3F0900007C004120994D0040CBC10004099850C81D00C22C00C85810CC081
:2001D30082C083C0F0058105810581E50C2404F87600E50C2404F886F005F07A017B00808C
:2001F30006EA2AFAEB33FBD5F0F7E50C2405F8A60208A603E50C2405F8E6F4FE08E6F4FFCD
:200213007D00C006C007ED75F002A4FBAAF0A80C08EB26FCEA0836FE0886078C828E838F02
:20023300F0120A74FCA3120A74FEE50C2405F8E6520408E65206EC4ED007D0066030C0062D
:20025300C007EB2401FCEA3400FF8C828F83E0FBA3E0FEE50C2405F8E6420308E642068C20
:20027300828F83EBF0EEA3F0D007D0068024C005EB2401FBEA3400FC8B828C83E0FAA3E0C7
:20029300FDEE5202EF52058B828C83EAF0EDA3F0D0050DBD1000500302021590000F12097B
:2002B30094E50C2404F806E50C2404F8B6100050030201E5850C81D00C22C00C85810CC0C0
:2002D30082C083C0F07C00EC75F002A42401F582740035F0F58374FFF0A3F0900008C00424
:2002F300120994D0048C03740FC39BFBC2D575F002EB30E704B2D5F404A430D50AF42401AE
:20031300C5F0F43400C5F02401FA740035F0FB8C077E00740FC39FFFE49EFEEF2FFFEE33D2
:20033300FEA80C08EF26FFEE0836FE0886058F828E838DF0120A74FDA3120A74FE8A828B2B
:2003530083EDF0EEA3F0900007C004120994D0040CBC100050030202DA850C81D00C227F33
:2003730000BF0200501F53B2FB43B10490001EC00712099443B20453B1FB90001E120994C9
:20039300D0070F80DC22C00CE581F50C2411F581A90C09778009770119740229F876C008E4
:2003B3007603740429F876E0087607740629F876F008760F740829F876F808761F740A2960
:2003D300F876F008760F740C29F876E0087607740E29F876C0087603E50C2411F876007E37
:2003F30000BE800040030204857D00BD1000506AC006E50C2411F8E62DFCFA5302077B0016
:20041300EA2AFAEB33EA29F886020886031853040F8CF005F0AE02AF038006EE2EFEEF3366
:20043300FFD5F0F77410C39CF5F005F08007C3EB13FBEA13FAD5F0F6EA4206EB420753067D
:20045300FAED75F002A42401F582740035F0F583EEF0EFA3F00DD0068091E50C2411F80672
:20047300900027C006C001120994D001D0060E0203F4850C81D00C22C00CE581F50C244720
:20049300F581E50C2408F9770009770219740229F87600087610740429F87600087680748F
:2004B3000629F87604087600740829F87620087600740A29F87600087600740C29F87600AF
:2004D300087608740E29F87600087600741029F87602087600741229F8761008760074141E
:2004F30029F87680087600741629F87600087604741829F87600087600741A29F8760108E2
:200513007600741C29F87600087600741E29F876400876007E007F4089828E838FF01201DB
:2005330053E50C2428F87632E50C2429FE7D00ED2D2EFCF98D038B02EA75F005A4240254F3
:200553000FF7EC04F9EB75F007A42403540FF70DBD0C0040DA7D00E50C2443F8E4F608F688
:20057300E50C2445F87600E50C2446F8E4F608F6E50C2446F8860208860374FE2B50030217
:200593000766E50C2428F8E50C2403F9E6F7E50C2443F8A90C09E6F708E609F7E50C244288
:2005B300F876007C00EC75F002A42401F582740035F0F583E4F0A3F00CBC100040E7E50C43
:2005D3002441F87600E50C2441F8E625E02EFC04F98707BF10005060C005EF75F002A424E5
:2005F30001FA740035F0FF8A828F83E50C2404F8E0F6A3E008F68C0187038BF005F0E50C57
:200613002406F87601087600188009E625E0F608E633F618D5F0F4E50C2404F8860408861D
:2006330005E50C2406F8E6420408E642058A828F83ECF0EDA3F0D005E50C2441F806E50C9A
:200653002441F8B60C0050030205D87F00EF2F2EFC04F987030BA703BB1000404377008CE2
:200673000187047B00C007C006C005C001C004C003900005120A52AB82AC83158115818BB0
:20069300828C83A3A3A37410C0E0E4C0E0120A90AB8215811581D001D005D006D007A70323
:2006B3000FBF0C0040A70DBD021E7D00E50C2403F8E624F75012E50C2403F816E50C24034E
:2006D300F8E50C2428F9E6F7E50C2403F8E624F74017A80C0806B600020806A80C08E50C5F
:2006F3002443F9E6F708E609F7A80C08C3E6945808E69402505DE50C2445F8E6600F43B29E
:200713000453B1FBE50C2445F87600800D53B2FB43B104E50C2445F87601E50C2403F88617
:20073300037F008B828F83C006C005120994D005D006E50C2442F806E50C2442F8B628009E
:2007530050030205B6E50C2446F806B600020806020583850C81D00C22C00CE581F50C2466
:2007730021F581A90C09770009778019740229F87602087600740429F876000876207406CD
:2007930029F87608087600740829F87600087608740A29F87620087600740C29F8760008BE
:2007B3007602740E29F87680087600741029F87680087600741229F8760008760274142930
:2007D300F87620087600741629F87600087608741829F87608087600741A29F87600087607
:2007F30020741C29F87602087600741E29F876000876807E007F4089828E838FF01201CD40
:200813001203727F00E50C2421F8760F7C007D008C028D03C3EB6480948240030208C47BC1
:2008330000EB30E008EB2FFA53020F801BC004C005E50C2421F8860574102D8B04C39CFDB1
:20085300740F5DFAD005D004C004C005EB75F002A42401FC740035F0FD8AF005F07A017E64
:20087300008006EA2AFAEE33FED5F0F78C828D83EAF0EEA3F00BBB1000D005D00440A2908C
:20089300000FC007C005C004120994D004D005D0078F060E740F5EFFE50C2421F886061E5C
:2008B300E50C2421F8740F5EF60CBC00010D020823850C81D00C22C00CE581F50C2420F5A1
:2008D300811200B31200F1D2C7D2C5D2B212037212048B12076CA90C097780097701197498
:2008F3000229F87680087607740429F8768008761F740629F8768008767F740829F87680FA
:200913000876FF740A29F876000876FE740C29F876000876F8740E29F876000876E074102E
:2009330029F87600087680741229F87602087680741429F8761A087680741629F8767A0818
:200953007680741829F876FA087681741A29F876FA087601741C29F876F8087681741E29FB
:20097300F876E00876017E007F4089828E838FF01201CD12037212039980FB850C81D00C41
:2009930022AE82AF830000C006C00790000C120A5285820985830A158115817508A8E508C9
:2009B30014F50870F9E50924FFFEE50A34FFFF8E098F0AEE4F70E722C020C0E0C0F0C08222
:2009D300C083C007C006C005C004C003C002C001C000C0D075D000900000120106E50B75C2
:2009F300F002A42401F582740035F0F583E0FEA3E0FF5306FA8E828F8312011B850BF00519
:200A1300F07E017F008006EE2EFEEF33FFD5F0F78E828F83120106050B74F0250B500375B1
:1F0A33000B00D0D0D000D001D002D003D004D005D006D007D083D082D0F0D0E0D0203226
:06008300E478FFF6D8FD51
:200061007900E94400601B7A00900B16782175A000E493F2A308B8000205A0D9F4DAF27504
:02008100A0FFDE
:200A520074FE2581F8E68582F0A4C0E08582F018E6A4F582D0E025F0C58386F0A42583F57F
:020A72008322DD
:200089007800E84400600A790175A000E4F309D8FC7820E84400600C7901900001E4F0A354
:0400A900D8FCD9FAAC
:0D005400758120120B12E58260030200513D
:1C0A740020F71430F6148883A88220F507E6A88375830022E280F7E49322E02291
:200A9000C2D5E58330E70DD2D5E4C39582F582E49583F583E58124FEF8E630E70918E4C38E
:1D0AB00096F6E40896F68601188600120AD730D50BE4C39582F582E49583F5832232
:200ACD00E58124FEF88601188600E84960367A01E825E0F8E933400EF9E58298E58399409A
:200AED00030A80ECC3E913F9E813F8C3E58298F5F0E583994005F58385F082C3E913F9E8C9
:050B0D0013F8DAE722F5
:040B120075820022C6
:00000001FF
